8=FIX.4.4|9=67|35=A|34=1|49=CLIENT|52=20250330-06:39:22.304|56=SERVER|98=0|108=30|10=149|8=FIX.4.4|9=136|35=D|34=2|49=CLIENT|52=20250330-06:39:26.298|56=SERVER|11=ORD-1743316766298|21=3|38=100|40=1|54=1|55=AAPL|59=0|60=20250330-12:09:26.298|10=082|8=FIX.4.4|9=55|35=0|34=3|49=CLIENT|52=20250330-06:39:57.289|56=SERVER|10=126|8=FIX.4.4|9=55|35=0|34=4|49=CLIENT|52=20250330-06:40:27.280|56=SERVER|10=107|8=FIX.4.4|9=67|35=A|34=5|49=CLIENT|52=20250330-08:43:54.712|56=SERVER|98=0|108=30|10=158|8=FIX.4.4|9=136|35=D|34=6|49=CLIENT|52=20250330-08:43:58.715|56=SERVER|11=ORD-1743324238710|21=3|38=100|40=1|54=1|55=AAPL|59=0|60=20250330-14:13:58.710|10=055|8=FIX.4.4|9=55|35=0|34=7|49=CLIENT|52=20250330-08:44:29.674|56=SERVER|10=125|8=FIX.4.4|9=55|35=0|34=8|49=CLIENT|52=20250330-08:44:59.675|56=SERVER|10=130|8=FIX.4.4|9=55|35=0|34=9|49=CLIENT|52=20250330-08:45:29.673|56=SERVER|10=127|8=FIX.4.4|9=56|35=0|34=10|49=CLIENT|52=20250330-08:45:59.680|56=SERVER|10=169|8=FIX.4.4|9=56|35=0|34=11|49=CLIENT|52=20250330-08:46:29.674|56=SERVER|10=171|8=FIX.4.4|9=56|35=0|34=12|49=CLIENT|52=20250330-08:46:59.678|56=SERVER|10=179|8=FIX.4.4|9=56|35=0|34=13|49=CLIENT|52=20250330-08:47:29.680|56=SERVER|10=171|8=FIX.4.4|9=56|35=0|34=14|49=CLIENT|52=20250330-08:47:59.677|56=SERVER|10=181|8=FIX.4.4|9=56|35=0|34=15|49=CLIENT|52=20250330-08:48:29.685|56=SERVER|10=179|8=FIX.4.4|9=56|35=0|34=16|49=CLIENT|52=20250330-08:48:59.684|56=SERVER|10=182|8=FIX.4.4|9=56|35=0|34=17|49=CLIENT|52=20250330-08:49:30.680|56=SERVER|10=169|8=FIX.4.4|9=56|35=0|34=18|49=CLIENT|52=20250330-08:50:00.682|56=SERVER|10=161|8=FIX.4.4|9=56|35=0|34=19|49=CLIENT|52=20250330-08:50:30.679|56=SERVER|10=171|8=FIX.4.4|9=56|35=0|34=20|49=CLIENT|52=20250330-08:51:00.684|56=SERVER|10=157|8=FIX.4.4|9=56|35=0|34=21|49=CLIENT|52=20250330-08:51:30.690|56=SERVER|10=158|8=FIX.4.4|9=56|35=0|34=22|49=CLIENT|52=20250330-08:52:00.681|56=SERVER|10=157|8=FIX.4.4|9=56|35=0|34=23|49=CLIENT|52=20250330-08:52:30.688|56=SERVER|10=168|8=FIX.4.4|9=56|35=0|34=24|49=CLIENT|52=20250330-08:53:01.677|56=SERVER|10=166|8=FIX.4.4|9=56|35=0|34=25|49=CLIENT|52=20250330-08:53:31.681|56=SERVER|10=165|8=FIX.4.4|9=56|35=0|34=26|49=CLIENT|52=20250330-08:54:01.686|56=SERVER|10=169|