8=FIX.4.4|9=67|35=A|34=1|49=SERVER|52=20250330-06:39:22.399|56=CLIENT|98=0|108=30|10=163|8=FIX.4.4|9=55|35=0|34=2|49=SERVER|52=20250330-06:39:52.975|56=CLIENT|10=122|8=FIX.4.4|9=55|35=0|34=3|49=SERVER|52=20250330-06:40:22.977|56=CLIENT|10=114|8=FIX.4.4|9=67|35=A|34=4|49=SERVER|52=20250330-08:43:54.819|56=CLIENT|98=0|108=30|10=165|8=FIX.4.4|9=55|35=0|34=5|49=SERVER|52=20250330-08:44:24.915|56=CLIENT|10=116|8=FIX.4.4|9=55|35=0|34=6|49=SERVER|52=20250330-08:44:54.909|56=CLIENT|10=123|8=FIX.4.4|9=55|35=0|34=7|49=SERVER|52=20250330-08:45:24.907|56=CLIENT|10=120|8=FIX.4.4|9=55|35=0|34=8|49=SERVER|52=20250330-08:45:54.914|56=CLIENT|10=122|8=FIX.4.4|9=55|35=0|34=9|49=SERVER|52=20250330-08:46:24.908|56=CLIENT|10=124|8=FIX.4.4|9=56|35=0|34=10|49=SERVER|52=20250330-08:46:54.910|56=CLIENT|10=161|8=FIX.4.4|9=56|35=0|34=11|49=SERVER|52=20250330-08:47:24.918|56=CLIENT|10=168|8=FIX.4.4|9=56|35=0|34=12|49=SERVER|52=20250330-08:47:55.907|56=CLIENT|10=171|8=FIX.4.4|9=56|35=0|34=13|49=SERVER|52=20250330-08:48:25.910|56=CLIENT|10=164|8=FIX.4.4|9=56|35=0|34=14|49=SERVER|52=20250330-08:48:55.911|56=CLIENT|10=169|8=FIX.4.4|9=56|35=0|34=15|49=SERVER|52=20250330-08:49:25.909|56=CLIENT|10=175|8=FIX.4.4|9=56|35=0|34=16|49=SERVER|52=20250330-08:49:55.903|56=CLIENT|10=173|8=FIX.4.4|9=56|35=0|34=17|49=SERVER|52=20250330-08:50:25.920|56=CLIENT|10=162|8=FIX.4.4|9=56|35=0|34=18|49=SERVER|52=20250330-08:50:56.906|56=CLIENT|10=171|8=FIX.4.4|9=56|35=0|34=19|49=SERVER|52=20250330-08:51:26.920|56=CLIENT|10=166|8=FIX.4.4|9=56|35=0|34=20|49=SERVER|52=20250330-08:51:56.913|56=CLIENT|10=163|8=FIX.4.4|9=56|35=0|34=21|49=SERVER|52=20250330-08:52:26.905|56=CLIENT|10=163|8=FIX.4.4|9=56|35=0|34=22|49=SERVER|52=20250330-08:52:56.918|56=CLIENT|10=171|8=FIX.4.4|9=56|35=0|34=23|49=SERVER|52=20250330-08:53:26.909|56=CLIENT|10=170|8=FIX.4.4|9=56|35=0|34=24|49=SERVER|52=20250330-08:53:56.906|56=CLIENT|10=171|