8=FIX.4.2|9=67|35=A|34=1|49=CLIENT|52=20250329-21:18:32.045|56=SERVER|98=0|108=30|10=152|8=FIX.4.2|9=55|35=0|34=2|49=CLIENT|52=20250329-21:19:02.047|56=SERVER|10=108|8=FIX.4.2|9=55|35=5|34=3|49=CLIENT|52=20250329-21:19:32.050|56=SERVER|10=111|8=FIX.4.2|9=67|35=A|34=4|49=CLIENT|52=20250329-21:31:56.789|56=SERVER|98=0|108=30|10=171|8=FIX.4.2|9=67|35=A|34=5|49=CLIENT|52=20250329-21:42:06.195|56=SERVER|98=0|108=30|10=160|8=FIX.4.2|9=136|35=D|34=6|49=CLIENT|52=20250329-21:42:10.209|56=SERVER|11=ORD-1743284530209|21=3|38=100|40=1|54=1|55=AAPL|59=0|60=20250329-21:42:10.209|10=043|8=FIX.4.2|9=55|35=0|34=7|49=CLIENT|52=20250329-21:42:40.209|56=SERVER|10=111|8=FIX.4.2|9=55|35=0|34=8|49=CLIENT|52=20250329-21:43:10.200|56=SERVER|10=101|8=FIX.4.2|9=55|35=0|34=9|49=CLIENT|52=20250329-21:43:40.195|56=SERVER|10=118|8=FIX.4.2|9=56|35=0|34=10|49=CLIENT|52=20250329-21:44:10.202|56=SERVER|10=146|8=FIX.4.2|9=56|35=0|34=11|49=CLIENT|52=20250329-21:44:40.209|56=SERVER|10=157|8=FIX.4.2|9=56|35=0|34=12|49=CLIENT|52=20250329-21:45:10.202|56=SERVER|10=149|8=FIX.4.2|9=56|35=0|34=13|49=CLIENT|52=20250329-21:45:40.210|56=SERVER|10=152|8=FIX.4.2|9=56|35=0|34=14|49=CLIENT|52=20250329-21:46:10.211|56=SERVER|10=152|8=FIX.4.2|9=56|35=0|34=15|49=CLIENT|52=20250329-21:46:41.201|56=SERVER|10=156|8=FIX.4.2|9=56|35=0|34=16|49=CLIENT|52=20250329-21:47:11.209|56=SERVER|10=163|