8=FIX.4.4|9=67|35=A|34=1|49=SERVER|52=20250330-06:39:22.399|56=CLIENT|98=0|108=30|10=163|8=FIX.4.4|9=55|35=0|34=2|49=SERVER|52=20250330-06:39:52.975|56=CLIENT|10=122|8=FIX.4.4|9=55|35=0|34=3|49=SERVER|52=20250330-06:40:22.977|56=CLIENT|10=114|