8=FIX.4.2|9=67|35=A|34=1|49=SERVER|52=20250329-21:18:32.125|56=CLIENT|98=0|108=30|10=151|8=FIX.4.2|9=55|35=0|34=2|49=SERVER|52=20250329-21:19:02.333|56=CLIENT|10=106|8=FIX.4.2|9=55|35=5|34=3|49=SERVER|52=20250329-21:19:32.053|56=CLIENT|10=114|8=FIX.4.2|9=67|35=A|34=4|49=SERVER|52=20250329-21:31:56.830|56=CLIENT|98=0|108=30|10=158|8=FIX.4.2|9=67|35=A|34=5|49=SERVER|52=20250329-21:42:06.290|56=CLIENT|98=0|108=30|10=156|8=FIX.4.2|9=55|35=0|34=6|49=SERVER|52=20250329-21:42:37.026|56=CLIENT|10=113|8=FIX.4.2|9=55|35=0|34=7|49=SERVER|52=20250329-21:43:07.030|56=CLIENT|10=107|8=FIX.4.2|9=55|35=0|34=8|49=SERVER|52=20250329-21:43:37.037|56=CLIENT|10=118|8=FIX.4.2|9=55|35=0|34=9|49=SERVER|52=20250329-21:44:07.037|56=CLIENT|10=117|8=FIX.4.2|9=56|35=0|34=10|49=SERVER|52=20250329-21:44:38.032|56=CLIENT|10=157|8=FIX.4.2|9=56|35=0|34=11|49=SERVER|52=20250329-21:45:08.028|56=CLIENT|10=161|8=FIX.4.2|9=56|35=0|34=12|49=SERVER|52=20250329-21:45:38.033|56=CLIENT|10=161|8=FIX.4.2|9=56|35=0|34=13|49=SERVER|52=20250329-21:46:08.031|56=CLIENT|10=158|8=FIX.4.2|9=56|35=0|34=14|49=SERVER|52=20250329-21:46:38.033|56=CLIENT|10=164|8=FIX.4.2|9=56|35=0|34=15|49=SERVER|52=20250329-21:47:08.031|56=CLIENT|10=161|