8=FIX.4.4|9=71|35=A|34=1|49=CLIENT1|52=20250331-19:49:39.586|56=OMS|98=0|108=30|141=Y|10=032|
8=FIX.4.4|9=71|35=A|34=1|49=OMS|52=20250331-19:49:39.696|56=CLIENT1|98=0|108=30|141=Y|10=034|
8=FIX.4.4|9=53|35=0|34=2|49=OMS|52=20250331-19:50:10.160|56=CLIENT1|10=171|
8=FIX.4.4|9=53|35=0|34=2|49=CLIENT1|52=20250331-19:50:10.160|56=OMS|10=171|
8=FIX.4.4|9=53|35=0|34=3|49=CLIENT1|52=20250331-19:50:40.571|56=OMS|10=181|
8=FIX.4.4|9=53|35=0|34=3|49=OMS|52=20250331-19:50:40.571|56=CLIENT1|10=181|
8=FIX.4.4|9=144|35=D|34=4|49=CLIENT1|52=20250331-19:50:43.191|56=OMS|11=ORD-1743450643191|21=1|38=100|40=2|44=150.25|54=b|55=AAPL|59=D|60=20250401-01:20:43.191|10=132|
8=FIX.4.4|9=137|35=3|34=4|49=OMS|52=20250331-19:50:43.249|56=CLIENT1|45=4|58=Value is incorrect (out of range) for this tag, field=54|371=54|372=D|373=5|10=069|
8=FIX.4.4|9=53|35=0|34=5|49=CLIENT1|52=20250331-19:51:13.572|56=OMS|10=185|
8=FIX.4.4|9=53|35=0|34=5|49=OMS|52=20250331-19:51:13.574|56=CLIENT1|10=187|
8=FIX.4.4|9=53|35=0|34=6|49=CLIENT1|52=20250331-19:51:43.565|56=OMS|10=191|
8=FIX.4.4|9=53|35=0|34=6|49=OMS|52=20250331-19:51:43.569|56=CLIENT1|10=195|
8=FIX.4.4|9=53|35=0|34=7|49=CLIENT1|52=20250331-19:52:13.568|56=OMS|10=193|
8=FIX.4.4|9=53|35=0|34=7|49=OMS|52=20250331-19:52:13.584|56=CLIENT1|10=191|
8=FIX.4.4|9=141|35=D|34=8|49=CLIENT1|52=20250331-19:52:40.749|56=OMS|11=ORD-1743450760749|21=1|38=500|40=2|44=100|54=s|55=AAPL|59=G|60=20250401-01:22:40.749|10=028|
8=FIX.4.4|9=137|35=3|34=8|49=OMS|52=20250331-19:52:40.751|56=CLIENT1|45=8|58=Value is incorrect (out of range) for this tag, field=54|371=54|372=D|373=5|10=074|
8=FIX.4.4|9=62|35=1|34=9|49=OMS|52=20250331-19:52:59.154|56=CLIENT1|112=TEST|10=215|
8=FIX.4.4|9=62|35=0|34=9|49=CLIENT1|52=20250331-19:52:59.154|56=OMS|112=TEST|10=214|
8=FIX.4.4|9=54|35=0|34=10|49=OMS|52=20250331-19:53:29.146|56=CLIENT1|10=236|
8=FIX.4.4|9=54|35=0|34=10|49=CLIENT1|52=20250331-19:53:29.146|56=OMS|10=236|
8=FIX.4.4|9=54|35=0|34=11|49=OMS|52=20250331-19:53:59.159|56=CLIENT1|10=244|
8=FIX.4.4|9=54|35=0|34=11|49=CLIENT1|52=20250331-19:53:59.159|56=OMS|10=244|
8=FIX.4.4|9=54|35=0|34=12|49=CLIENT1|52=20250331-19:54:29.570|56=OMS|10=240|
8=FIX.4.4|9=54|35=0|34=12|49=OMS|52=20250331-19:54:29.570|56=CLIENT1|10=240|
8=FIX.4.4|9=54|35=0|34=13|49=OMS|52=20250331-19:55:00.144|56=CLIENT1|10=228|
8=FIX.4.4|9=54|35=0|34=13|49=CLIENT1|52=20250331-19:55:00.144|56=OMS|10=228|
8=FIX.4.4|9=71|35=A|34=1|49=CLIENT1|52=20250331-20:08:35.663|56=OMS|98=0|108=30|141=Y|10=011|
8=FIX.4.4|9=71|35=A|34=1|49=OMS|52=20250331-20:08:35.759|56=CLIENT1|98=0|108=30|141=Y|10=017|
8=FIX.4.4|9=53|35=0|34=2|49=CLIENT1|52=20250331-20:09:06.648|56=OMS|10=183|
8=FIX.4.4|9=53|35=0|34=2|49=OMS|52=20250331-20:09:06.650|56=CLIENT1|10=176|
8=FIX.4.4|9=53|35=0|34=3|49=CLIENT1|52=20250331-20:09:36.651|56=OMS|10=181|
8=FIX.4.4|9=53|35=0|34=3|49=OMS|52=20250331-20:09:36.655|56=CLIENT1|10=185|
8=FIX.4.4|9=53|35=0|34=4|49=CLIENT1|52=20250331-20:10:06.649|56=OMS|10=178|
8=FIX.4.4|9=53|35=0|34=4|49=OMS|52=20250331-20:10:06.649|56=CLIENT1|10=178|
8=FIX.4.4|9=53|35=0|34=5|49=CLIENT1|52=20250331-20:10:36.653|56=OMS|10=177|
8=FIX.4.4|9=53|35=0|34=5|49=OMS|52=20250331-20:10:36.653|56=CLIENT1|10=177|
8=FIX.4.4|9=53|35=0|34=6|49=CLIENT1|52=20250331-20:11:06.653|56=OMS|10=176|
8=FIX.4.4|9=53|35=0|34=6|49=OMS|52=20250331-20:11:06.653|56=CLIENT1|10=176|
8=FIX.4.4|9=141|35=D|34=7|49=CLIENT1|52=20250331-20:11:30.098|56=OMS|11=ORD-1743451890098|21=1|38=100|40=2|44=125|54=b|55=MSFT|59=D|60=20250401-01:41:30.098|10=020|
8=FIX.4.4|9=137|35=3|34=7|49=OMS|52=20250331-20:11:30.131|56=CLIENT1|45=7|58=Value is incorrect (out of range) for this tag, field=54|371=54|372=D|373=5|10=050|
8=FIX.4.4|9=62|35=1|34=8|49=OMS|52=20250331-20:11:51.738|56=CLIENT1|112=TEST|10=201|
8=FIX.4.4|9=62|35=0|34=8|49=CLIENT1|52=20250331-20:11:51.740|56=OMS|112=TEST|10=193|
8=FIX.4.4|9=53|35=0|34=9|49=OMS|52=20250331-20:12:21.732|56=CLIENT1|10=175|
8=FIX.4.4|9=53|35=0|34=9|49=CLIENT1|52=20250331-20:12:21.732|56=OMS|10=175|
8=FIX.4.4|9=54|35=0|34=10|49=OMS|52=20250331-20:12:51.733|56=CLIENT1|10=220|
8=FIX.4.4|9=54|35=0|34=10|49=CLIENT1|52=20250331-20:12:51.735|56=OMS|10=222|
8=FIX.4.4|9=134|35=D|34=11|49=CLIENT1|52=20250331-20:12:54.900|56=OMS|11=ORD-1743451974900|21=1|38=50|40=1|54=s|55=AAPL|59=I|60=20250401-01:42:54.900|10=201|
8=FIX.4.4|9=139|35=3|34=11|49=OMS|52=20250331-20:12:54.900|56=CLIENT1|45=11|58=Value is incorrect (out of range) for this tag, field=54|371=54|372=D|373=5|10=149|
8=FIX.4.4|9=143|35=D|34=12|49=CLIENT1|52=20250331-20:13:13.888|56=OMS|11=ORD-1743451993888|21=1|38=75|40=2|44=250.5|54=s|55=TSLA|59=G|60=20250401-01:43:13.888|10=172|
8=FIX.4.4|9=139|35=3|34=12|49=OMS|52=20250331-20:13:13.888|56=CLIENT1|45=12|58=Value is incorrect (out of range) for this tag, field=54|371=54|372=D|373=5|10=162|
8=FIX.4.4|9=63|35=1|34=13|49=OMS|52=20250331-20:13:37.729|56=CLIENT1|112=TEST|10=252|
8=FIX.4.4|9=63|35=0|34=13|49=CLIENT1|52=20250331-20:13:37.729|56=OMS|112=TEST|10=251|
8=FIX.4.4|9=54|35=0|34=14|49=OMS|52=20250331-20:14:07.731|56=CLIENT1|10=225|
8=FIX.4.4|9=54|35=0|34=14|49=CLIENT1|52=20250331-20:14:07.731|56=OMS|10=225|
8=FIX.4.4|9=54|35=0|34=15|49=OMS|52=20250331-20:14:37.736|56=CLIENT1|10=234|
8=FIX.4.4|9=54|35=0|34=15|49=CLIENT1|52=20250331-20:14:37.736|56=OMS|10=234|
8=FIX.4.4|9=54|35=0|34=16|49=OMS|52=20250331-20:15:07.727|56=CLIENT1|10=233|
8=FIX.4.4|9=54|35=0|34=16|49=CLIENT1|52=20250331-20:15:07.727|56=OMS|10=233|
8=FIX.4.4|9=54|35=0|34=17|49=OMS|52=20250331-20:15:37.732|56=CLIENT1|10=233|
8=FIX.4.4|9=54|35=0|34=17|49=CLIENT1|52=20250331-20:15:37.732|56=OMS|10=233|
8=FIX.4.4|9=54|35=0|34=18|49=OMS|52=20250331-20:16:07.737|56=CLIENT1|10=237|
8=FIX.4.4|9=54|35=0|34=18|49=CLIENT1|52=20250331-20:16:07.739|56=OMS|10=239|
8=FIX.4.4|9=54|35=0|34=19|49=OMS|52=20250331-20:16:37.730|56=CLIENT1|10=234|
8=FIX.4.4|9=54|35=0|34=19|49=CLIENT1|52=20250331-20:16:37.730|56=OMS|10=234|
8=FIX.4.4|9=54|35=0|34=20|49=OMS|52=20250331-20:17:07.730|56=CLIENT1|10=224|
8=FIX.4.4|9=54|35=0|34=20|49=CLIENT1|52=20250331-20:17:07.732|56=OMS|10=226|
8=FIX.4.4|9=54|35=0|34=21|49=OMS|52=20250331-20:17:37.725|56=CLIENT1|10=232|
8=FIX.4.4|9=54|35=0|34=21|49=CLIENT1|52=20250331-20:17:37.725|56=OMS|10=232|
8=FIX.4.4|9=54|35=0|34=22|49=OMS|52=20250331-20:18:07.726|56=CLIENT1|10=232|
8=FIX.4.4|9=54|35=0|34=22|49=CLIENT1|52=20250331-20:18:07.726|56=OMS|10=232|
8=FIX.4.4|9=54|35=0|34=23|49=OMS|52=20250331-20:18:37.723|56=CLIENT1|10=233|
8=FIX.4.4|9=54|35=0|34=23|49=CLIENT1|52=20250331-20:18:37.725|56=OMS|10=235|
8=FIX.4.4|9=54|35=0|34=24|49=OMS|52=20250331-20:19:07.735|56=CLIENT1|10=235|
8=FIX.4.4|9=54|35=0|34=24|49=CLIENT1|52=20250331-20:19:07.737|56=OMS|10=237|
8=FIX.4.4|9=54|35=0|34=25|49=OMS|52=20250331-20:19:37.731|56=CLIENT1|10=235|
8=FIX.4.4|9=54|35=0|34=25|49=CLIENT1|52=20250331-20:19:37.731|56=OMS|10=235|
8=FIX.4.4|9=71|35=A|34=1|49=CLIENT1|52=20250412-18:57:24.601|56=OMS|98=0|108=30|141=Y|10=012|
8=FIX.4.4|9=71|35=A|34=1|49=OMS|52=20250412-18:57:24.712|56=CLIENT1|98=0|108=30|141=Y|10=015|
8=FIX.4.4|9=53|35=0|34=2|49=OMS|52=20250412-18:57:55.212|56=CLIENT1|10=184|
8=FIX.4.4|9=53|35=0|34=2|49=CLIENT1|52=20250412-18:57:55.212|56=OMS|10=184|
8=FIX.4.4|9=134|35=D|34=3|49=CLIENT1|52=20250412-18:58:12.995|56=OMS|11=ORD-1744484292989|21=1|38=100|40=1|54=s|55=msft|59=D|60=20250413-00:28:12.989|10=152|
8=FIX.4.4|9=137|35=3|34=3|49=OMS|52=20250412-18:58:13.029|56=CLIENT1|45=3|58=Value is incorrect (out of range) for this tag, field=54|371=54|372=D|373=5|10=067|
8=FIX.4.4|9=71|35=A|34=1|49=CLIENT1|52=20250412-18:58:42.869|56=OMS|98=0|108=30|141=Y|10=029|
8=FIX.4.4|9=71|35=A|34=1|49=OMS|52=20250412-18:58:42.920|56=CLIENT1|98=0|108=30|141=Y|10=017|
8=FIX.4.4|9=53|35=0|34=2|49=OMS|52=20250412-18:59:13.201|56=CLIENT1|10=178|
8=FIX.4.4|9=53|35=0|34=2|49=CLIENT1|52=20250412-18:59:13.201|56=OMS|10=178|
8=FIX.4.4|9=53|35=0|34=3|49=OMS|52=20250412-18:59:43.202|56=CLIENT1|10=183|
8=FIX.4.4|9=53|35=0|34=3|49=CLIENT1|52=20250412-18:59:43.204|56=OMS|10=185|
8=FIX.4.4|9=53|35=0|34=4|49=OMS|52=20250412-19:00:13.199|56=CLIENT1|10=183|
8=FIX.4.4|9=53|35=0|34=4|49=CLIENT1|52=20250412-19:00:13.199|56=OMS|10=183|
8=FIX.4.4|9=53|35=0|34=5|49=OMS|52=20250412-19:00:43.203|56=CLIENT1|10=173|
8=FIX.4.4|9=53|35=0|34=5|49=CLIENT1|52=20250412-19:00:43.203|56=OMS|10=173|
8=FIX.4.4|9=53|35=0|34=6|49=OMS|52=20250412-19:01:13.200|56=CLIENT1|10=169|
8=FIX.4.4|9=53|35=0|34=6|49=CLIENT1|52=20250412-19:01:13.200|56=OMS|10=169|
8=FIX.4.4|9=53|35=0|34=7|49=OMS|52=20250412-19:01:43.206|56=CLIENT1|10=179|
8=FIX.4.4|9=53|35=0|34=7|49=CLIENT1|52=20250412-19:01:43.206|56=OMS|10=179|
8=FIX.4.4|9=53|35=0|34=8|49=OMS|52=20250412-19:02:13.211|56=CLIENT1|10=174|
8=FIX.4.4|9=53|35=0|34=8|49=CLIENT1|52=20250412-19:02:13.227|56=OMS|10=181|
8=FIX.4.4|9=53|35=0|34=9|49=OMS|52=20250412-19:02:43.202|56=CLIENT1|10=178|
8=FIX.4.4|9=53|35=0|34=9|49=CLIENT1|52=20250412-19:02:43.848|56=OMS|10=194|
8=FIX.4.4|9=54|35=0|34=10|49=OMS|52=20250412-19:03:13.215|56=CLIENT1|10=221|
8=FIX.4.4|9=54|35=0|34=10|49=CLIENT1|52=20250412-19:03:13.845|56=OMS|10=230|
