8=FIX.4.4|9=67|35=A|34=1|49=CLIENT|52=20250330-06:39:22.304|56=SERVER|98=0|108=30|10=149|
8=FIX.4.4|9=67|35=A|34=1|49=SERVER|52=20250330-06:39:22.399|56=CLIENT|98=0|108=30|10=163|
8=FIX.4.4|9=136|35=D|34=2|49=CLIENT|52=20250330-06:39:26.298|56=SERVER|11=ORD-1743316766298|21=3|38=100|40=1|54=1|55=AAPL|59=0|60=20250330-12:09:26.298|10=082|
8=FIX.4.4|9=55|35=0|34=2|49=SERVER|52=20250330-06:39:52.975|56=CLIENT|10=122|
8=FIX.4.4|9=55|35=0|34=3|49=CLIENT|52=20250330-06:39:57.289|56=SERVER|10=126|
8=FIX.4.4|9=55|35=0|34=3|49=SERVER|52=20250330-06:40:22.977|56=CLIENT|10=114|
8=FIX.4.4|9=55|35=0|34=4|49=CLIENT|52=20250330-06:40:27.280|56=SERVER|10=107|
