8=FIX.4.4|9=71|35=A|34=1|49=CLIENT1|52=20250412-18:58:42.869|56=OMS|98=0|108=30|141=Y|10=029|8=FIX.4.4|9=53|35=0|34=2|49=CLIENT1|52=20250412-18:59:13.201|56=OMS|10=178|8=FIX.4.4|9=53|35=0|34=3|49=CLIENT1|52=20250412-18:59:43.204|56=OMS|10=185|8=FIX.4.4|9=53|35=0|34=4|49=CLIENT1|52=20250412-19:00:13.199|56=OMS|10=183|8=FIX.4.4|9=53|35=0|34=5|49=CLIENT1|52=20250412-19:00:43.203|56=OMS|10=173|8=FIX.4.4|9=53|35=0|34=6|49=CLIENT1|52=20250412-19:01:13.200|56=OMS|10=169|8=FIX.4.4|9=53|35=0|34=7|49=CLIENT1|52=20250412-19:01:43.206|56=OMS|10=179|8=FIX.4.4|9=53|35=0|34=8|49=CLIENT1|52=20250412-19:02:13.227|56=OMS|10=181|8=FIX.4.4|9=53|35=0|34=9|49=CLIENT1|52=20250412-19:02:43.848|56=OMS|10=194|8=FIX.4.4|9=54|35=0|34=10|49=CLIENT1|52=20250412-19:03:13.845|56=OMS|10=230|